:400000000010002011000000110300001103000080B500AF00F086F980B500AF154B154A12688021C9020A431A60182000F00EFD104B104A126810490A401A600F4B104A81
:400040001A60104B20221A600F4B10221A600F4B802212061A60074B00221A600C4B0D4A1A600D4B0D4A1A600D4B00221A60C046BD4680BD00010B40FFFFFBFF04010B404E
:4000800006000080080202400C02024008010B40000002400E00008040000240CF0000800C020B4080B582B000AF72B6FB1D00221A7022E0FB1D1A7813005B009B185B00A6
:4000C0002F4A9B183B603B681A78597809020A43997809040A43DB781B06134318003B681A795B791B0213439BB2190000F0FAF8FB1D1A78FB1D01321A70FB1D1B78012B73
:40010000D8D9204B204A1A60204B99221A60204B992212041A601F4B992212041A601E4B992212041A601D4A1C4B1B78DBB206210B43DBB213701A4B04221A60194BC02242
:4001400052001A60184B40221A60184BC02252031A60174B03221A60164B174A1A60174B02221A60164B31221A60164B02221A60FFF752FF00F0C6F8C046BD4602B080BD09
:40018000781400000C000140EEEE00001000014000500F4010500F4030500F4000700F40000004400800044000010440080104400003044008030440A40D000000040440AC
:4001C000080404401804044010B5064C2378002B07D1054B002B02D0044800E000BF0123237010BD480100200000000074140000084B10B5002B03D00749084800E000BF98
:4002000007480368002B00D110BD064B002BFBD09847F9E7000000004C01002074140000C80000200000000080B582B000AF2B4B01221A70294B00225A70284B03229A701D
:40024000264B0722DA70254B09221A71234B1A78224B5B785340DAB2204B9B785340DAB21E4BDB785340DAB21C4B1B795340DAB21A4B5A7162B600F0EDF800F0DFFD17493A
:4002800000230622082000F0CDF9C04600F0FAFA020002231340F9D0114900230622082000F054FAC04600F0EDFA020001231340F9D000237B6009E0094A7B68D3181B7823
:4002C000180000F0DBFD7B6801337B607B68052BF2DD0A2000F05EFDD1E7C046700100207801002080B582B000AF786039603A687B680021180001F0B5F8C046BD4602B04F
:4003000080BDC04680B500AFC046BD4680BDC04680B500AF01F07AF803001B680C2B00D1FEE7FEE780B586B000AF224B7B61224B3B61204B7B6135E03B691B68FB603B69BD
:400340005B68BB603B699B683B6000237B600CE0FB681A68BB681A60BB680433BB60FB680433FB607B6804337B607A683B689A42EED13B69DB683B6000237B6008E0BB68E7
:4003800000221A60BB680433BB607B6804337B607A683B689A42F2D13B6910333B617B69013B7B617B69002BC6D101F035F8FFF73BFFFEE701000000D814000080B582B067
:4003C00000AF00237B600FE07B68032B04D8104B7A689200D35800E00E4B0F4A796889008B507B6801337B607B682F2BECD9FFF759FE0A4B00221A608023DB058022D20575
:40040000126801210A431A60C046BD4602B080BD000000001103000000000020C000002080B500AF00F036F8C046BD4680BDC04680B500AF064B064A1268802109060A4303
:400440001A6000F019F800F01FF8C046BD4680BD0000074080B500AF064B1B78002B04D1FFF7DEFF034B01221A70FFF7E1FFC046BD4680BD6401002080B500AF0B2000F037
:4004800051FCC046BD4680BD80B500AFC046BD4680BDC04680B500AF234B234A12680C210A431A60214B00221A60214B214A1A60214B224A1A60224B00221A60214B00220A
:4004C0001A60214B1D4A1A60204B00221A600B2000F03EFC03210B2000F0D0FB1C4B19000B2000F0A5FB1B4B00221A601A4B00221A601A4B00221A60194B00221A60194B2C
:4005000000221A60184B00221A60184B10221A70174B00221A80174B00221A60164B00221A60C046BD4680BD7000074000000740600007407708008000030740070100802C
:4005400004030740100307400002074004020740BD0F0000C80E0740880E0740480F0740080F0740C80F0740880F07407E0100208C010020880100209001002080B500AFF5
:40058000184B184A1268520052081A60164B00221A60164B00221A60154B154A126815490A401A60144B00221A60144B00221A60134B144A1A60144B144A1A60144B154A60
:4005C0001A60154B154A1A60154B10221A70054B044A1268802109060A431A60C046BD4680BDC04600000740680007406C00074060000740FF5CFFFF880F0740C80F0740AC
:40060000800F0740F3070000C00F0740ED0F0000400F0740FF0F0000000F0740170300007E01002080B586B000AFF860B9607A603B6004237B61BB68002B20D0344B1B78D2
:40064000DBB2102B0CD10B2000F082FB314B1B680122134001D0082300E000237B610EE02B4B1B78DBB2602B09D12B4B1B889BB2082293439AB2284B1A8000237B617B6962
:40068000002B3CD1224B28221A70244B00221A60234B00221A60234B7A681A60224BBA681A603B68DAB2214B1A70FB685B00FF221340FB60184B1B889BB2022293439AB28E
:4006C000154B1A801A4B40221A601A4B1A4A1A601A4B1422FF321A60194B40221A603B680122134005D000F0EFF8164BFA681A6005E0144BFA681A60134B02221A600B20AD
:4007000000F010FB7B691800BD4606B080BDC0467E010020640007408C0100209801002090010020A00100208401002094010020800F0740000F074017030000080F0740A6
:40074000880F0740400207406800074080B586B000AFF860B9607A603B6004237B61BB68002B20D0394B1B78DBB2102B0CD10B2000F0EEFA364B1B680122134001D00823ED
:4007800000E000237B610EE0304B1B78DBB2602B09D1304B1B889BB2082293439AB22D4B1A8000237B617B69002B47D1274B29221A70294B00221A60284B7A681A60284BE4
:4007C000BA681A603B68DAB2264B1A70FB685B00FF22134001221343FB601E4B1B889BB2012293439AB21B4B1A801F4B1F4A1A601F4B1422FF321A60184B1B68072B03D804
:400800001C4B04221A6009E01B4B1B4A1268802149000A431A60174B08221A603B680122134005D000F050F8144BFA681A6005E0124BFA681A60124B02221A600B2000F037
:4008400071FA7B691800BD4606B080BD7E010020640007408C010020880100209C0100208001002094010020000F074017030000080F0740C80F074060000740400207404C
:400880006800074080B582B000AF0B2000F060FA0B4B1B889BB27B600A4B1B78DBB220221340DBB2002B03D07B68042213437B600B2000F037FA7B681800BD4602B080BDD5
:4008C0008C0100207E01002080B584B000AF0A23FB1801221A80374BFB60374B1B68202213407B6008E00A23FB181B88180000F077FAFB68013BFB6000F066F8031E02D1C5
:40090000FB68002BEFD1FB68002B4ED0294BFB60002000F067F8294B284A12680F218A431A60274B264A1268520052081A607B68002B1CD0002000F055F80A2000F050FA6B
:40094000012000F04FF80A2000F04AFA08E00A23FB181B88180000F043FAFB68013BFB6000F066F8031E02D1FB68002BEFD1FB68002B08D0002000F035F80A2000F030FA40
:40098000104B01221A600E4B0D4A1268802109060A431A60094B094A12680F218A430E210A431A60012000F01DF8C046BD4604B080BDC046204E0000640007400C000140FE
:4009C000000007406800074080B500AF044B1B68022213405B08DBB21800BD4680BDC0460403044080B584B000AF0200FB1D1A700E4B1B68DAB20F23FB1801218A431A7059
:400A0000FB1D1B7801221340D9B20F23FB180F22BA1812780A431A70044B0F22BA1812781A60C046BD4604B080BDC0460003044080B500AF044B1B68DBB201221340DBB27E
:400A40001800BD4680BDC0460403044090B585B000AF78600C23FC1800F0A8FA030023707B68022B00D8AFE07B68302B00D9ABE05C4B1B78DBB21A007B689A420AD35A4A27
:400A80000F23FB1812781A70584A0E23FB1812781A703FE0564B1B78DBB21A007B689A420AD3544A0F23FB1812781A70524A0E23FB1812781A702DE0504B1B78DBB21A0080
:400AC0007B689A420AD34E4A0F23FB1812781A704C4A0E23FB1812781A701BE04A4B1B78DBB21A007B689A420AD3484A0F23FB1812781A70464A0E23FB1812781A7009E059
:400B0000444A0F23FB1812781A70434A0E23FB1812781A707B68DA1E0B23FB183F498A5C1A700B23FB181B782F2B0DD97B682A2B0AD93B4B19221A60052000F02DFA0D23FF
:400B4000FB1819221A7007E0354B1B68DAB20D23FB183F210A401A700B23FA180D23FB1812781B789A4208D22D4B7A68033A2B498A5C1A60052000F00FFA2A4B7A6826490B
:400B80008C4662441278D2B21A60274B0F22BA1812781A60254B0E22BA1812781A60052000F01EF90B23FA180D23FB1812781B789A420CD91A4B7A68033A18498A5C1A6074
:400BC000052000F0E9F902E0002000F0D7F80C23FB181B78180000F0EDF9C046BD4605B090BDC046C0F1FF0FC1F1FF0FC2F1FF0FC3F1FF0FC4F1FF0FC5F1FF0FC6F1FF0F1B
:400C0000C7F1FF0FC8F1FF0FC9F1FF0FCAF1FF0FCBF1FF0FCCF1FF0FCDF1FF0F841400002CFF0B4028FF0B401CFF0B4020FF0B4080B584B000AF02003960FB1D1A708023ED
:400C40009B05FB60FB1D1B781F2B02D9002000F095F8FB1D1B7810339B00FA68D3181B68BB60FB1D1B7810339B00FA68D3183A681A60BB681800BD4604B080BD90B587B0FB
:400C800000AF0200FB1D1A70BB1D0A1C1A70BB1D1B78032B02D9002000F070F8FB1D1B781F2B02D9002000F069F8FB1D1B7803221340DB0006337B611323FC1800F076F970
:400CC00003002370FB1D1B789B08DBB29B00144A944663441B68FB6003227B699A401300DA43FB681340FB60BB1D1A787B699A401300FA681343FB60FB1D1B789B08DBB2DE
:400D00009B00074A94466344FA681A601323FB181B78180000F04EF9C046BD4607B090BD00E400E080B582B000AF0200FB1D1A70064BFA1D12781F210A40012191400A003B
:400D40001A60C046BD4602B080BDC04600E100E080B582B000AF0200FB1D1A70064BFA1D12781F210A40012191400A001A60C046BD4602B080BDC04680E100E080B582B0E7
:400D800000AF0200FB1D1A7001BEC046BD4602B080BDC04680B582B000AF786009E00D4B1B68180000F0F8F87B680B4A944663447B607A6880231B029A42F0D8074B1B68CA
:400DC0007A685343180000F0E7F8C046BD4602B080BDC046D80000200080FFFFD000002080B582B000AF0200BB1D1A80BB1D1B88044A12785343180000F0CEF8C046BD46E6
:400E000002B080BDD400002080B500AF00F04CF8C046BD4680BDC04680B500AF064B064A1268802109060A431A6000F019F800F01DF8C046BD4680BD0000064080B500AF7F
:400E4000064B1B78002B04D1FFF7DEFF034B01221A70FFF7E1FFC046BD4680BD6C01002080B500AFC046BD4680BDC04680B500AF00F078F8C046BD4680BDC04680B582B0F0
:400E800000AF7860C046064B1B680F221340082BF9D0044B7A681A60C046BD4602B080BD080206404002064080B500AF1A4B1B4A1A601B4B00221A601A4B1B4A1A601B4B02
:400EC0001B4A1A601B4B07221A601B4B00221A601A4B01221A601A4B154A1A60194B00221A60194B00221A60184B00221A60184B00221A60174B00221A60174B00221A60CE
:400F0000164B00221A60154B1B689AB2144B1A80C046BD4680BDC046000006400B000002400006404800064001000A000003064007000080040306401003064044000640CE
:400F40000002064004020640880E0640C80E0640480F0640080F0640C80F0640880F06406E01002080B500AF074B074A1268F0218A4390210A431A60044B054A12881A6059
:400F8000C046BD4680BDC04610000140880F06406E010020000000000230800804D0C0460138FDD1C046C046C0467047EFF3108072B6704780F310887047C04680B582B044
:400FC00000AF00233B60BE4B1B68002B02D0BC4B1B689847BB4B1B680122134002D0BA4B00221A60B94B1B78DBB220221340DBB2002B38D0B64B1A6880235B0013400AD0F9
:40100000B44B1B889BB2C022920013439AB2B14B1A8001233B60AE4B1B68012213400AD0AC4B1B889BB29022920013439AB2A94B1A8001233B603B68002B14D0A34B1B783D
:40104000DBB201221340DBB2002B01D0012300E00223A04A128892B213439AB29D4B1A809A4B00221A70994B1B78DBB220221340DBB2002B00D1A2E1954B1B6810221340B1
:4010800018D0954B10221A60904B1B78DBB201221340DBB2002B01D0012300E002238D4A128892B213439AB28A4B1A80874B10221A708EE1854B1B78DBB208221340DBB2DC
:4010C000002B29D0824B1B68022213400ED0824B02221A607F4B1B889BB28822920013439AB27C4B1A8001233B6015E0774B1B78DBB201221340DBB2002B03D0734B252227
:401100001A7009E0714B24221A70744B1B68002B02D0734B10221A606C4B1B78DBB204221340DBB2002B00D111E1684B1B78DBB201221340DBB2002B5BD06A4B1B680822AE
:40114000134033D0684B1A68684B1B680F211940674B1B68CB18D31A7B607B68082B02D908237B601EE07B68002B1BD1614B614A126861490A401A6008237B6001233B6052
:4011800010E05E4B1A685A4B1B68D2185C4B1B68DBB21370564B1B685A1C554B1A607B68013B7B607B68002BEBD11EE04D4B1B680422134019D0514B1A684D4B1B68D218B2
:4011C0004F4B1B68DBB21370494B1B685A1C484B1A60474B1A68444B1B689A4203D2494B04221A6001E001233B60474B474A1A60ADE0374B1B680222134032D0364B022230
:401200001A60434B1B680F221A40414B196880231B020B4001D0012300E00023D2183D4B1B689A1A3B4B1A603A4B1A683A4B1A60284B1B889BB28422920013439AB2254B2C
:401240001A80364B354A1268802149020A431A60324B324A126832490A401A6001233B6075E0304B1B681022134065D013E0294B1A681A4B1B689A4214D22B4A2B4B19682A
:40128000244B1B68CB181B78DBB21360214B1B685A1C204B1A601E4B1B680F221340082BE5D100E0C0461B4B1A680C4B1B689A4202D10B4B40221A601D4B1E4A1A6046E02A
:4012C000680100208C0E0740880E07407E0100200C0F07408C010020000F0740A0010020880F0740CC0F07409C010020080307408801002060000740FFFEFFFF80010020E7
:401300004003074068000740C00F0740ED0F000008020740980100209001002004020740FFFFFEFF8C0F07404002074084010020800F0740F3070000284B1B6840221340D4
:4013400005D0274B1A68274B1A6001233B603B68002B3ED0244B244A126824490A401A60234B00221A60234B00221A60224B1B78DBB202221340DBB2002B15D01F4B1B78E3
:40138000DBB201221340DBB2002B01D0092300E00A231B4A128892B213439AB2184B1A80164B60221A7014E0164B174A126820210A4001D0182200E010221A6009E00F4B84
:4013C0001B78DBB210221340DBB2002B01D1FFF7D5F8C046BD4602B080BDC0468C0F0740980100209001002060000740FFFEFFFFC80F0740880F0740940100207E010020BF
:401400008C0100206800074064000740014B18687047C046400100200E4B70B500251E000D4CE41AA410A54204D0AB00F35898470135F8E700F03EF8084B00251E00084C3A
:40144000E41AA410A54204D0AB00F35898470135F8E770BDC0140000C0140000C0140000C814000003008218934202D019700133FAE770470000000000300F400004004034
:401480000F400004030405060708090A0B0C0E0F101112131415161718191B1C1D1E1F2021222325262728292A2B2E2F3031323334354300F8B5C046F8BC08BC9E467047E0
:4014C000F1010000BD030000F8B5C046F8BC08BC9E467047C9010000E8140000C800002080000000600000000000000000366E01C05D0000180000000000E02E01000000FD
:401500000000000000000000000000000000000000000000000000000000000000000000B214000000000000000000000000000000000000000000000000000000000000E5
:401540000000000000000000000000000000000000000000000000000000000000000000E0000020000000000000000000000000000000000000000000000000000000006B
:40158000000000000000000000000000000000000000000000000000000000000000000000000000000000000000000000000000000000000000000000000000000000002B
:4015C00000000000000000000000000000000000000000000000000000000000000000000000000000000000000000000000000000000000000000000000000000000000EB
:4016000000000000000000000000000000000000000000000000000000000000000000000000000000000000000000000000000000000000000000000000000000000000AA
:40164000000000000000000000000000000000000000000000000000000000000000000000000000000000000000000000000000000000000000000000000000000000006A
:0200000490303A
:02000000A25705
:0200000490402A
:200000000000000000000000000000000000000000000000000000000000000000000000E0
:0200000490501A
:0C000000000204C81193110104CEB3EA01
:0200000490600A
:0100000001FE
:00000001FF